{
  "contractName": "Demo",
  "abi": [
    {
      "constant": true,
      "inputs": [],
      "name": "balance",
      "outputs": [
        {
          "name": "",
          "type": "uint256"
        }
      ],
      "payable": false,
      "stateMutability": "view",
      "type": "function"
    },
    {
      "inputs": [],
      "payable": false,
      "stateMutability": "nonpayable",
      "type": "constructor"
    },
    {
      "constant": false,
      "inputs": [],
      "name": "contribute",
      "outputs": [],
      "payable": true,
      "stateMutability": "payable",
      "type": "function"
    }
  ],
  "bytecode": "0x608060405234801561001057600080fd5b506000808190555060c1806100266000396000f3006080604052600436106049576000357c0100000000000000000000000000000000000000000000000000000000900463ffffffff168063b69ef8a814604e578063d7bb99ba146076575b600080fd5b348015605957600080fd5b506060607e565b6040518082815260200191505060405180910390f35b607c6084565b005b60005481565b3460008082825401925050819055505600a165627a7a7230582060e3b9ced21f607d830ffa1c84e25e979bb20b508a67419c7c93c08d5188e6770029",
  "source": "pragma solidity ^0.4.23; //^0.5.10 is vscode compiler version\ncontract Demo {\n uint public balance;\n // Initialize global variables\n constructor() public \n {\n  balance = 0;\n }\n // The payable keyword allows this function to accept Ether\n function contribute() public payable\n {\n  // msg.value is the value of Ether sent in a transaction\n  balance += msg.value;\n }\n}",
  "sourcePath": "/Users/Jessica/Desktop/blockchaininquiry/demo2_ropsten_infura/contracts/Demo.sol",
  "compiler": {
    "name": "solc",
    "version": "0.4.24+commit.e67f0147.Emscripten.clang"
  },
  "schemaVersion": "2.0.1",
  "updatedAt": "2019-08-19T21:18:52.621Z"
}